:1000000010C017C016C015C014C013C012C011C054
:1000100010C00FC00EC00DC00CC00BC00AC009C07C
:1000200008C011241FBECFE5D2E0DEBFCDBF3BD05C
:10003000C2C3E6CF91E095BBEFE2F5E73197F1F768
:1000400000C000008BBB8FE295E70197F1F700C07D
:10005000000015BA0895CF93C62F28E0829FC001F3
:100060001124642F8C0F911D95D381E001C0880F5E
:10007000CA95EAF793E012BA3FE749EA23E0315024
:1000800040402040E1F700C0000082BB3FE749EA62
:1000900023E0315040402040E1F700C00000915083
:1000A00051F7CF910895CF93DF93CDB7DEB768971F
:1000B0000FB6F894DEBF0FBECDBF8FEF8ABB17BA65
:1000C00091E094BB81BB87E086B91BBA15BA12BA1E
:1000D00017B8C12CD12C00E010E07601E00EF11E23
:1000E000C70150D3E1E0F0E0EC0FFD1FEE0DFF1D66
:1000F00080830F5F1F4F0830110579F728E0C20E8B
:10010000D11C80E2C816D10431F781E082BB87B9E7
:100110001981812F8FDFF12C00E0CC24C394D12CE6
:1001200074E0B72EE2E0AE2E99249394F8E08F2E7F
:10013000A0E47A2EB7E0EB2E80E2682E90E8592EEC
:1001400086B38F3E09F499C190F48F3B09F45BC2EA
:1001500038F48F3309F4E2C28F3709F4A6C2F0CF26
:100160008F3C09F41DC28F3D09F4E1C1E9CF8B3FFB
:1001700009F4D3C038F4833F09F455C1873F09F42B
:1001800019C1DECF8D3FD9F108F499C08E3FC1F679
:100190009FEF21EE84E0915020408040E1F700C0C5
:1001A000000086B38F3FC1F492BAE1E0F0E0EC0FBB
:1001B000FD1F98E0099FE00DF11D11241081812F92
:1001C00039DF2FEF84E39CE0215080409040E1F73D
:1001D00000C00000F12CB4CF86B38E3F09F07BC085
:1001E0002FEF82E597E0215080409040E1F700C07A
:1001F000000086B38E3F09F0A3CF192511C18FEF00
:1002000091EE24E0815090402040E1F700C00000D2
:1002100086B38F3FC9F4A2BAE1E0F0E0EC0FFD1F16
:1002200088E0089FE00DF11D11241181812F02DF6C
:100230009FEF24E38CE0915020408040E1F700C024
:100240000000FF24F3947CCF86B38D3F79F49FEFB9
:1002500022E587E0915020408040E1F700C0000097
:1002600086B38D3F09F06CCF1A2597C186B38C3FBA
:1002700009F066CF9FEF22E587E091502040804053
:10028000E1F700C0000086B38C3F09F059CFE1E0F0
:10029000F0E0EC0FFD1F98E0099FE00DF11D112427
:1002A000EF0DF11D1083412F6F2D802FD4DE2FEF26
:1002B00084E39CE0215080409040E1F742C22FEF60
:1002C00081EE94E0215080409040E1F700C00000B2
:1002D00086B38F3F61F386B38C3F09F031CF2FEFA8
:1002E00082E597E0215080409040E1F700C0000097
:1002F00086B38C3F09F024CFE1E0F0E0EC0FFD1F66
:1003000028E0029FE00DF11D1124EF0DF11D108377
:10031000412F6F2D802F9FDE0DC28FEF91EE24E0D5
:10032000815090402040E1F700C0000086B38F3F2D
:10033000C9F4B2BAE1E0F0E0EC0FFD1F88E0089FDD
:10034000E00DF11D11241281812F74DE9FEF24E353
:100350008CE0915020408040E1F700C0000052E066
:10036000F52EEECE86B38B3F79F49FEF22E587E042
:10037000915020408040E1F700C0000086B38B3FE1
:1003800009F0DECE1B2509C186B3833F09F0D8CE24
:100390009FEF22E587E0915020408040E1F700C0C8
:1003A000000086B3833F09F0CBCE002309F423C1BC
:1003B00001501AC19FEF21EE84E09150204080400F
:1003C000E1F700C0000086B38F3FC9F482BAE1E0D4
:1003D000F0E0EC0FFD1F98E0099FE00DF11D1124E6
:1003E0001381812F27DE2FEF84E39CE02150804092
:1003F0009040E1F700C0000043E0F42EA1CE86B3A8
:10040000873FF1F42FEF82E597E021508040904044
:10041000E1F700C0000086B3873F09F091CE1825B0
:10042000812F08DE44CF2FEF81EE94E021508040F1
:100430009040E1F700C0000086B38F3F09F437CF4A
:1004400086B3833F09F07CCE2FEF82E597E0215001
:1004500080409040E1F700C0000086B3833F09F080
:100460006FCE002309F423CF0150C601002E01C036
:10047000880F0A94EAF787B91ACF2FEF81EE94E03C
:10048000215080409040E1F700C0000086B38F3FCC
:10049000D1F480E182BBE1E0F0E0EC0FFD1F28E049
:1004A000029FE00DF11D11241481812FC3DD8FEF18
:1004B00094E32CE0815090402040E1F700C0000020
:1004C00034E0F32E3DCE86B38F3E81F48FEF92E57C
:1004D00027E0815090402040E1F700C0000086B343
:1004E0008F3E09F02DCE80E1182715C186B38F3CD1
:1004F00009F026CE8FEF92E527E081509040204012
:10050000E1F700C0000086B38F3C09F019CE03303C
:1005100008F010C10F5F033011F4E7B80BC1C6013A
:10052000002E01C0880F0A94EAF787B903C18FEF44
:1005300091EE24E0815090402040E1F700C000009F
:1005400086B38F3FC9F462BAE1E0F0E0EC0FFD1F23
:1005500088E0089FE00DF11D11241581812F6ADDCF
:100560009FEF24E38CE0915020408040E1F700C0F1
:10057000000025E0F22EE4CD86B38F3DE9F49FEF35
:1005800022E587E0915020408040E1F700C0000064
:1005900086B38F3D09F0D4CD1625812F4BDD2BC0BE
:1005A0009FEF21EE84E0915020408040E1F700C0B1
:1005B000000086B38F3FF9F086B38F3C09F0C0CDC1
:1005C0009FEF22E587E0915020408040E1F700C096
:1005D000000086B38F3C09F0B3CD033060F40F5FA9
:1005E000033011F4E7B807C0C601002E01C0880F20
:1005F0000A94EAF787B99FEF24E38CE091502040FA
:100600008040E1F79EC09FEF21EE84E091502040B2
:100610008040E1F700C0000086B38F3FC9F472BA92
:10062000E1E0F0E0EC0FFD1F98E0099FE00DF11D07
:1006300011241681812FFEDC2FEF84E39CE02150F2
:1006400080409040E1F700C0000096E0F92E78CDA0
:1006500086B38F3B79F42FEF82E597E021508040FD
:100660009040E1F700C0000086B38F3B09F068CDF1
:100670001725D6CE86B38F3309F062CD2FEF82E5F2
:1006800097E0215080409040E1F700C0000086B321
:100690008F3309F055CD80E0CDDC2FEF84E39CE073
:1006A000215080409040E1F769C02FEF81EE94E047
:1006B000215080409040E1F700C0000086B38F3F9A
:1006C000C9F452BAE1E0F0E0EC0FFD1F28E0029F10
:1006D000E00DF11D11241781812FACDC8FEF94E325
:1006E0002CE0815090402040E1F700C0000087E0FE
:1006F000F82E26CD86B38F3739F58FEF92E527E0B8
:10070000815090402040E1F700C0000086B38F3751
:1007100009F016CD1058812F8DDC0CC08FEF91EEB3
:1007200024E0815090402040E1F700C0000086B3F3
:100730008F3F51F48FEF94E32CE0815090402040A4
:10074000E1F700C00000FCCC86B38F3309F0F8CC91
:100750008FEF92E527E0815090402040E1F700C004
:10076000000086B38F3309F0EBCC80E063DC8FEFC1
:1007700094E32CE0815090402040E1F700C000005D
:1007800010E0DECCE199FECF9FBB8EBBE09A9927AB
:100790008DB30895262FE199FECF9FBB8EBBE09AC3
:1007A00001970DB2021631F02DBB0FB6F894E29A04
:0A07B000E19A0FBE0895F894FFCF00
:00000001FF
